{
  "_format": "hh-sol-artifact-1",
  "contractName": "fundOS",
  "sourceName": "contracts/fundOS.sol",
  "abi": [
    {
      "inputs": [
        {
          "internalType": "uint256",
          "name": "_fundingGoal",
          "type": "uint256"
        },
        {
          "internalType": "uint256",
          "name": "_deadline",
          "type": "uint256"
        }
      ],
      "name": "createProject",
      "outputs": [],
      "stateMutability": "nonpayable",
      "type": "function"
    },
    {
      "inputs": [],
      "name": "projectCount",
      "outputs": [
        {
          "internalType": "uint256",
          "name": "",
          "type": "uint256"
        }
      ],
      "stateMutability": "view",
      "type": "function"
    },
    {
      "inputs": [
        {
          "internalType": "uint256",
          "name": "",
          "type": "uint256"
        }
      ],
      "name": "projects",
      "outputs": [
        {
          "internalType": "address payable",
          "name": "owner",
          "type": "address"
        },
        {
          "internalType": "uint256",
          "name": "fundingGoal",
          "type": "uint256"
        },
        {
          "internalType": "uint256",
          "name": "deadline",
          "type": "uint256"
        },
        {
          "internalType": "uint256",
          "name": "totalFunded",
          "type": "uint256"
        },
        {
          "internalType": "bool",
          "name": "isFunded",
          "type": "bool"
        }
      ],
      "stateMutability": "view",
      "type": "function"
    }
  ],
  "bytecode": "0x6080604052600060015534801561001557600080fd5b50610b75806100256000396000f3fe608060405234801561001057600080fd5b50600436106100415760003560e01c806302da667b14610046578063107046bd1461006257806336fbad2614610096575b600080fd5b610060600480360381019061005b91906107be565b6100b4565b005b61007c600480360381019061007791906107fe565b61045d565b60405161008d959493929190610896565b60405180910390f35b61009e6104c0565b6040516100ab91906108e9565b60405180910390f35b6100f26040518060400160405280601f81526020017f536f6d657468696e67206973206578697374696e6720736f6d657768657265008152506104c6565b6040518060a001604052803373ffffffffffffffffffffffffffffffffffffffff1681526020018381526020018281526020016000815260200160001515815250600080600154815260200190815260200160002060008201518160000160006101000a81548173ffffffffffffffffffffffffffffffffffffffff021916908373ffffffffffffffffffffffffffffffffffffffff16021790555060208201518160010155604082015181600201556060820151816003015560808201518160040160006101000a81548160ff0219169083151502179055509050506101f06040518060600160405280602b8152602001610b15602b91396104c6565b6102666040518060400160405280600781526020017f4f776e65723a2000000000000000000000000000000000000000000000000000815250600080600154815260200190815260200160002060000160009054906101000a900473ffffffffffffffffffffffffffffffffffffffff1661055f565b6102bc6040518060400160405280600e81526020017f46756e64696e6720476f616c3a200000000000000000000000000000000000008152506000806001548152602001908152602001600020600101546105fb565b6103126040518060400160405280600a81526020017f446561646c696e653a20000000000000000000000000000000000000000000008152506000806001548152602001908152602001600020600201546105fb565b6103686040518060400160405280600e81526020017f546f74616c2046756e6465643a200000000000000000000000000000000000008152506000806001548152602001908152602001600020600301546105fb565b6104416040518060400160405280600b81526020017f49732046756e6465643a20000000000000000000000000000000000000000000815250600080600154815260200190815260200160002060040160009054906101000a900460ff16610405576040518060400160405280600281526020017f4e6f00000000000000000000000000000000000000000000000000000000000081525061043c565b6040518060400160405280600381526020017f59657300000000000000000000000000000000000000000000000000000000008152505b610697565b6001600081548092919061045490610933565b91905055505050565b60006020528060005260406000206000915090508060000160009054906101000a900473ffffffffffffffffffffffffffffffffffffffff16908060010154908060020154908060030154908060040160009054906101000a900460ff16905085565b60015481565b61055c816040516024016104da9190610a0b565b6040516020818303038152906040527f41304fac000000000000000000000000000000000000000000000000000000007bffffffffffffffffffffffffffffffffffffffffffffffffffffffff19166020820180517bffffffffffffffffffffffffffffffffffffffffffffffffffffffff8381831617835250505050610733565b50565b6105f78282604051602401610575929190610a4e565b6040516020818303038152906040527f319af333000000000000000000000000000000000000000000000000000000007bffffffffffffffffffffffffffffffffffffffffffffffffffffffff19166020820180517bffffffffffffffffffffffffffffffffffffffffffffffffffffffff8381831617835250505050610733565b5050565b6106938282604051602401610611929190610a7e565b6040516020818303038152906040527fb60e72cc000000000000000000000000000000000000000000000000000000007bffffffffffffffffffffffffffffffffffffffffffffffffffffffff19166020820180517bffffffffffffffffffffffffffffffffffffffffffffffffffffffff8381831617835250505050610733565b5050565b61072f82826040516024016106ad929190610aae565b6040516020818303038152906040527f4b5c4277000000000000000000000000000000000000000000000000000000007bffffffffffffffffffffffffffffffffffffffffffffffffffffffff19166020820180517bffffffffffffffffffffffffffffffffffffffffffffffffffffffff8381831617835250505050610733565b5050565b61074a8161074261074d61076e565b63ffffffff16565b50565b60006a636f6e736f6c652e6c6f679050600080835160208501845afa505050565b610779819050919050565b610781610ae5565b565b600080fd5b6000819050919050565b61079b81610788565b81146107a657600080fd5b50565b6000813590506107b881610792565b92915050565b600080604083850312156107d5576107d4610783565b5b60006107e3858286016107a9565b92505060206107f4858286016107a9565b9150509250929050565b60006020828403121561081457610813610783565b5b6000610822848285016107a9565b91505092915050565b600073ffffffffffffffffffffffffffffffffffffffff82169050919050565b60006108568261082b565b9050919050565b6108668161084b565b82525050565b61087581610788565b82525050565b60008115159050919050565b6108908161087b565b82525050565b600060a0820190506108ab600083018861085d565b6108b8602083018761086c565b6108c5604083018661086c565b6108d2606083018561086c565b6108df6080830184610887565b9695505050505050565b60006020820190506108fe600083018461086c565b92915050565b7f4e487b7100000000000000000000000000000000000000000000000000000000600052601160045260246000fd5b600061093e82610788565b91507fffffffffffffffffffffffffffffffffffffffffffffffffffffffffffffffff82036109705761096f610904565b5b600182019050919050565b600081519050919050565b600082825260208201905092915050565b60005b838110156109b557808201518184015260208101905061099a565b60008484015250505050565b6000601f19601f8301169050919050565b60006109dd8261097b565b6109e78185610986565b93506109f7818560208601610997565b610a00816109c1565b840191505092915050565b60006020820190508181036000830152610a2581846109d2565b905092915050565b6000610a388261082b565b9050919050565b610a4881610a2d565b82525050565b60006040820190508181036000830152610a6881856109d2565b9050610a776020830184610a3f565b9392505050565b60006040820190508181036000830152610a9881856109d2565b9050610aa7602083018461086c565b9392505050565b60006040820190508181036000830152610ac881856109d2565b90508181036020830152610adc81846109d2565b90509392505050565b7f4e487b7100000000000000000000000000000000000000000000000000000000600052605160045260246000fdfe50726f6a656374206372656174656420776974682074686520666f6c6c6f77696e672064657461696c733aa26469706673582212208bd26a674803111ea68daf582d7c39d1281b725cd0b5bb73590221801fb55f6d64736f6c63430008130033",
  "linkReferences": {},
  "deployedLinkReferences": {}
}